:020000040000FA
:100000000C945D000C9485000C9485000C94850084
:100010000C9485000C9485000C9485000C9485004C
:100020000C9485000C9485000C9485000C9485003C
:100030000C9485000C9485000C9485000C9485002C
:100040000C944D020C9485000C94BD020C94970204
:100050000C9485000C9485000C9485000C9485000C
:100060000C9485000C9485000000000024002700FB
:100070002A0000000000250028002B0004040404CE
:100080000404040402020202020203030303030342
:10009000010204081020408001020408102001021F
:1000A00004081020000000080002010000030407FB
:1000B0000000000000000000680411241FBECFEF04
:1000C000D8E0DEBFCDBF11E0A0E0B1E0EAE3F9E0A7
:1000D00002C005900D92A231B107D9F721E0A2E14B
:1000E000B1E001C01D92AE3FB207E1F710E0CDE5EF
:1000F000D0E004C02197FE010E949504CC35D107C1
:10010000C9F70E94EF020C949B040C940000AF927C
:10011000BF92CF92DF92EF92FF920F931F93CF93F4
:10012000DF936C017B018B01040F151FEB015E0156
:10013000AE18BF08C017D10759F06991D601ED91EB
:10014000FC910190F081E02DC6010995892B79F78A
:10015000C501DF91CF911F910F91FF90EF90DF903C
:10016000CF90BF90AF900895FC01538D448D252F03
:1001700030E0842F90E0821B930B541710F0CF9641
:10018000089501970895FC01918D828D981761F073
:10019000A28DAE0FBF2FB11D5D968C91928D9F5F8A
:1001A0009F73928F90E008958FEF9FEF0895FC0169
:1001B000918D828D981731F0828DE80FF11D858D1C
:1001C00090E008958FEF9FEF0895FC01918D228DAF
:1001D000892F90E0805C9F4F821B91098F73992734
:1001E000089588E591E00E94E50021E0892B09F45B
:1001F00020E0822F089580E090E0892B29F00E9472
:10020000F10081110C9400000895FC01A48DA80F49
:10021000B92FB11DA35ABF4F2C91848D90E0019648
:100220008F739927848FA689B7892C93A089B18968
:100230008C91837080648C93938D848D981306C009
:100240000288F389E02D80818F7D80830895EF926D
:10025000FF920F931F93CF93DF93EC0181E0888F80
:100260009B8D8C8D98131AC0E889F989808185FF50
:1002700015C09FB7F894EE89FF896083E889F989F2
:1002800080818370806480839FBF81E090E0DF91F4
:10029000CF911F910F91FF90EF900895F62E0B8D47
:1002A00010E00F5F1F4F0F731127E02E8C8D8E1102
:1002B0000CC00FB607FCFACFE889F989808185FF69
:1002C000F5CFCE010E940501F1CFEB8DEC0FFD2F94
:1002D000F11DE35AFF4FF0829FB7F8940B8FEA8924
:1002E000FB8980818062CFCFCF93DF93EC01888D33
:1002F0008823B9F0AA89BB89E889F9898C9185FDA1
:1003000003C0808186FD0DC00FB607FCF7CF8C912E
:1003100085FFF2CF808185FFEDCFCE010E940501E0
:10032000E9CFDF91CF91089590E0FC01EC55FF4FAC
:100330002491FC01E057FF4F3491FC01E458FF4F3A
:10034000E491EE23C9F0222339F0233001F1A8F41F
:10035000213019F1223029F1F0E0EE0FFF1FEE58A5
:10036000FF4FA591B4918FB7F894EC91611126C01D
:1003700030953E233C938FBF08952730A9F0283055
:10038000C9F0243049F7809180008F7D03C08091AF
:1003900080008F7780938000DFCF84B58F7784BD16
:1003A000DBCF84B58F7DFBCF8091B0008F778093BA
:1003B000B000D2CF8091B0008F7DF9CF3E2BDACF45
:1003C000482F50E0FA01E057FF4F9491FA01E458AA
:1003D000FF4F2491222399F030E0220F331FF901BF
:1003E000E859FF4FA591B491F901EE58FF4F2591BF
:1003F00034912FB7F894EC91E92BEC932FBF611552
:10040000710519F460E00C9494016F3F710511F4CB
:1004100061E0F9CFFA01EC55FF4FE491E33019F1B7
:1004200040F4E130B1F0E230C9F06038710584F792
:10043000E9CFE73011F1E83041F1E430B1F78091D4
:10044000800080628093800070938B0060938A00AC
:10045000089584B5806884BD67BD089584B58062C1
:1004600084BD68BD0895809180008068809380007D
:10047000709389006093880008958091B00080682F
:100480008093B0006093B30008958091B0008062C3
:100490008093B0006093B40008951F920F920FB63E
:1004A0000F9211242F933F938F939F93AF93BF93FA
:1004B0008091FA019091FB01A091FC01B091FD01A6
:1004C0003091F90123E0230F2D3758F50196A11D36
:1004D000B11D2093F9018093FA019093FB01A09341
:1004E000FC01B093FD018091F5019091F601A0917E
:1004F000F701B091F8010196A11DB11D8093F5019E
:100500009093F601A093F701B093F801BF91AF91DA
:100510009F918F913F912F910F900FBE0F901F9041
:10052000189526E8230F0296A11DB11DD2CF1F9268
:100530000F920FB60F9211242F933F934F935F9317
:100540006F937F938F939F93AF93BF93EF93FF939B
:1005500088E591E00E940501FF91EF91BF91AF9175
:100560009F918F917F916F915F914F913F912F91CB
:100570000F900FBE0F901F9018951F920F920FB6FD
:100580000F9211242F938F939F93EF93FF93E091FA
:100590006801F09169018081E0916E01F0916F0135
:1005A00082FD1BC09081809171018F5F8F732091BC
:1005B0007201821741F0E0917101F0E0E85AFE4FBC
:1005C000958F80937101FF91EF919F918F912F9162
:1005D0000F900FBE0F901F9018958081F4CF7894E4
:1005E00084B5826084BD84B5816084BD85B5826038
:1005F00085BD85B5816085BD80916E0081608093E9
:100600006E00109281008091810082608093810051
:100610008091810081608093810080918000816061
:10062000809380008091B10084608093B1008091BC
:10063000B00081608093B00080917A0084608093E4
:100640007A0080917A00826080937A0080917A00AB
:10065000816080937A0080917A00806880937A002C
:100660001092C100E0916801F091690182E08083FD
:10067000E0916401F09165011082E0916601F091D2
:10068000670187E0808310927001E0916C01F09126
:100690006D0186E08083E0916A01F0916B018081B9
:1006A00080618083E0916A01F0916B0180818860B4
:1006B0008083E0916A01F0916B0180818068808382
:1006C000E0916A01F0916B0180818F7D808385B517
:1006D000887F826085BD85B5887F82608093810038
:1006E00085B5887F82608093B10010925701109287
:1006F000560170E0E72E70E0F72E02E010E0E4E033
:10070000CE2ED12CC1E0D0E0F3E0AF2EB12C88E5A5
:1007100091E00E94E50018161906C4F488E591E0FE
:100720000E94C300209156013091570121303105BC
:10073000C9F12230310509F49FC0232B39F4823FDF
:10074000910531F16CF4813F9105A9F0E114F104B8
:10075000F1F20E94F1008823D1F20E940000D7CF6D
:10076000833F9105D1F0843F910581F7D0925501E7
:10077000C092540104C0D0935501C0935401D0934A
:100780005701C09356011092530110925201DECFCF
:100790001093550100935401F2CFB0925501A092ED
:1007A0005401EDCF813F910531F3CCF483339105B2
:1007B000F9F08939910509F45AC02091520130911C
:1007C0005301F901EE0FFF1FEE5EFE4F9183808310
:1007D0002F5F3F4F3093530120935201B7CF833F98
:1007E0009105D9F2ACF2843F910509F4BFCFE5CF72
:1007F0008090540190905501C401880F991F880D75
:10080000991D20915201309153011092570110927D
:10081000560110925301109252018217930709F06A
:1008200095CF609112017091130183E00E94E00165
:10083000609114017091150185E00E94E0016091C2
:1008400016017091170186E00E94E00182E088168F
:10085000910444F570E060E089E00E94E00170E0FE
:1008600060E08AE00E94E00170E060E02DC010933B
:100870005701009356016ACF2091520130915301E4
:10088000F901EE0FFF1FEE5EFE4F918380832F5F15
:100890003F4F3093530120935201D0935701C0939F
:1008A000560154CF609118017091190189E00E949E
:1008B000E00160911A0170911B018AE00E94E00141
:1008C00060911C0170911D018BE00E94E0013ECF00
:1008D000E8E5F1E01382128288EE93E0A0E0B0E058
:1008E00084839583A683B78384E091E0918380839A
:1008F00085EC90E09587848784EC90E097878687E5
:1009000080EC90E0918B808B81EC90E0938B828BDC
:1009100082EC90E0958B848B86EC90E0978B868BB5
:10092000118E128E138E148E0895EE0FFF1F0590F8
:10093000F491E02D0994F894FFCF00000000270106
:0C0940008700B4007401E500C300D7007C
:107E0000112484B714BE81FFF0D085E080938100F7
:107E100082E08093C00088E18093C10086E0809377
:107E2000C20080E18093C4008EE0C9D0259A86E02C
:107E300020E33CEF91E0309385002093840096BBD3
:107E4000B09BFECF1D9AA8958150A9F7CC24DD24C4
:107E500088248394B5E0AB2EA1E19A2EF3E0BF2EE7
:107E6000A2D0813461F49FD0082FAFD0023811F036
:107E7000013811F484E001C083E08DD089C08234E0
:107E800011F484E103C0853419F485E0A6D080C0E4
:107E9000853579F488D0E82EFF2485D0082F10E0AE
:107EA000102F00270E291F29000F111F8ED06801E7
:107EB0006FC0863521F484E090D080E0DECF843638
:107EC00009F040C070D06FD0082F6DD080E0C81688
:107ED00080E7D80618F4F601B7BEE895C0E0D1E017
:107EE00062D089930C17E1F7F0E0CF16F0E7DF06D8
:107EF00018F0F601B7BEE89568D007B600FCFDCFD4
:107F0000A601A0E0B1E02C9130E011968C91119780
:107F100090E0982F8827822B932B1296FA010C0160
:107F200087BEE89511244E5F5F4FF1E0A038BF0790
:107F300051F7F601A7BEE89507B600FCFDCF97BE46
:107F4000E89526C08437B1F42ED02DD0F82E2BD052
:107F50003CD0F601EF2C8F010F5F1F4F84911BD097
:107F6000EA94F801C1F70894C11CD11CFA94CF0C13
:107F7000D11C0EC0853739F428D08EE10CD085E9AC
:107F80000AD08FE07ACF813511F488E018D01DD067
:107F900080E101D065CF982F8091C00085FFFCCF94
:107FA0009093C60008958091C00087FFFCCF809118
:107FB000C00084FD01C0A8958091C6000895E0E648
:107FC000F0E098E1908380830895EDDF803219F02E
:107FD00088E0F5DFFFCF84E1DECF1F93182FE3DFCA
:107FE0001150E9F7F2DF1F91089580E0E8DFEE27F6
:047FF000FF270994CA
:027FFE00040479
:00000001FF
